:020000040000FA
:060000000A128A110C280F
:10000800FE00030EF1000A08F2000A168A11B12B4D
:100018000A128A110F28FA018313DF308400F030A6
:100028000A168A1125230A128A1183010A168A11CF
:10003800C22BD0300A168A11A1230A128A118316FC
:100048000313111B2828292823283B300A168A1154
:1000580091230A128A1183160313111B3428352899
:100068002F280A168A1136230A128A11D1300A1645
:100078008A1191230A128A1183160313DC01DD0108
:1000880000300A128A11C1270A128A118316031333
:10009800A0005C08A43E840020088313800001307F
:1000A800DC070318DD0A0030DD075D08803AFF0031
:1000B80080307F02031D62280D305C02031C652816
:1000C8006628442801300A128A11C1270A128A11A7
:1000D80083160313A0002008B1000A168A112D23E5
:1000E8000A128A11831603132508A000A101240807
:1000F800A200A3012208A300A20120082204CE0026
:1001080021082304CF002708A000A1012608A20087
:10011800A3012208A300A20120082204D00021087C
:100128002304D1002908A000A1012808A200A301E6
:100138002208A300A20120082204D20021082304D7
:10014800D3002B08A000A1012A08A200A3012208BD
:10015800A300A20120082204D40021082304D5000A
:100168002D08A000A1012C08A200A3012208A300C9
:10017800A20120082204D60021082304D7002F0852
:10018800A000A1012E08A200A3012208A300A20139
:1001980020082204D80021082304D9003108A0002F
:1001A800A1013008A200A3012208A300A20120088F
:1001B8002204DA0021082304DB003A3083120313F7
:1001C800AD001C30AC00D030AB008630AA008316DE
:1001D80003134E08F3004F08F4000030F41BFF30FF
:1001E800F500F60001300A168A1144270A128A110E
:1001F800760883120313B1007508B0007408AF00C5
:100208007308AE000A128A1160240A128A11831236
:1002180003132D0883160313B500831203132C0848
:1002280083160313B400831203132B0883160313D6
:10023800B300831203132A0883160313B2003A305B
:1002480083120313AD001C30AC00D030AB008630F5
:10025800AA00831603135008F3005108F400003075
:10026800F41BFF30F500F60001300A168A11442706
:100278000A128A11760883120313B1007508B000B8
:100288007408AF007308AE000A128A1160240A12BB
:100298008A11831203132D0883160313B9008312DE
:1002A80003132C0883160313B800831203132B08B7
:1002B80083160313B700831203132A088316031344
:1002C800B6003A3083120313AD001C30AC00D030B6
:1002D800AB008630AA00831603135208F3005308B4
:1002E800F4000030F41BFF30F500F60001300A1668
:1002F8008A1144270A128A11760883120313B1005F
:100308007508B0007408AF007308AE000A128A11AD
:1003180060240A128A11831203132D08831603130B
:10032800BD00831203132C0883160313BC00831229
:1003380003132B0883160313BB00831203132A0825
:1003480083160313BA00423083120313C700123016
:10035800C6001E30C500B830C4004330AD00AA3016
:10036800AC000030AB000030AA0083160313540819
:10037800F3005508F4000030F41BFF30F500F600D8
:1003880001300A168A1144270A128A117608831244
:100398000313B1007508B0007408AF007308AE000D
:1003A8000A128A154F210A128A11831203132D0883
:1003B800CB002C08CA002B08C9002A08C8000A125A
:1003C8008A1578250A128A1183120313470883169F
:1003D8000313C10083120313460883160313C000D6
:1003E80083120313450883160313BF0083120313F4
:1003F800440883160313BE003B3083120313AD0079
:10040800FA30AC000530AB001430AA008316031391
:100418005608F3005708F4000030F41BFF30F500CD
:10042800F60001300A168A1144270A128A11760842
:1004380083120313B1007508B0007408AF00730885
:10044800AE000A128A1160240A128A118312031359
:100458002D0883160313C500831203132C08831673
:100468000313C400831203132B0883160313C3005A
:10047800831203132A0883160313C2003B30831226
:100488000313AD00FA30AC000530AB001430AA00FD
:10049800831603135808F3005908F4000030F41BBE
:1004A800FF30F500F60001300A168A1144270A12B7
:1004B8008A11760883120313B1007508B000740816
:1004C800AF007308AE000A128A1160240A128A115A
:1004D800831203132D0883160313C9008312031311
:1004E8002C0883160313C800831203132B088316E2
:1004F8000313C700831203132A0883160313C600C5
:100508003B3083120313AD00FA30AC000530AB006A
:100518001430AA00831603135A08F3005B08F4008A
:100528000030F41BFF30F500F60001300A168A117E
:1005380044270A128A11760883120313B10075083A
:10054800B0007408AF007308AE000A128A11602464
:100558000A128A11831203132D0883160313CD0080
:10056800831203132C0883160313CC00831203137E
:100578002B0883160313CB00831203132A08831650
:100588000313CA00350883120313E3008316031309
:10059800340883120313E20083160313330883120B
:1005A8000313E10083160313320883120313E000D8
:1005B8000230E4000030E5000A128A157A200A1297
:1005C8008A1183160313A0002008DE005E08F400D9
:1005D8000030F5000630A0002008F6000A168A113F
:1005E800AB240A128A110430B23E84008313000837
:1005F80083120313E000840A0008E100840A00085B
:10060800E200840A0008E3000230E4000030E5005C
:100618000A128A157A200A128A1183160313A00077
:100628002008DE003430F4008030F5000A30A000E5
:100638002008F6000A168A11AB240A128A118316BA
:1006480003135E08F4000030F5000630A00020080F
:10065800F6000A168A11AB240A128A110830B23E33
:1006680084008313000883120313E000840A00083F
:10067800E100840A0008E200840A0008E30002306E
:10068800E4000030E5000A128A157A200A128A115D
:1006980083160313A0002008DE003430F4008030F5
:1006A800F5000A30A0002008F6000A168A11AB24CB
:1006B8000A128A11831603135E08F4000030F5004D
:1006C8000630A0002008F6000A168A11AB240A1288
:1006D8008A110C30B23E840083130008831203137E
:1006E800E000840A0008E100840A0008E200840AA5
:1006F8000008E3000230E4000030E5000A128A1521
:100708007A200A128A1183160313A0002008DE003B
:100718003430F4008030F5000A30A0002008F600DC
:100728000A168A11AB240A128A11831603135E086B
:10073800F4000030F5000630A0002008F6000A1684
:100748008A11AB240A128A111030B23E8400831336
:10075800000883120313E000840A0008E100840AF9
:100768000008E200840A0008E3000230E4000030D8
:10077800E5000A128A157A200A128A1183160313D1
:10078800A0002008DE003430F4008030F5000A3084
:10079800A0002008F6000A168A11AB240A128A1152
:1007A800831603135E08F4000030F5000630A0003D
:1007B8002008F6000A168A11AB240A128A1114308E
:1007C800B23E84008313000883120313E000840AF6
:1007D8000008E100840A0008E200840A0008E30037
:1007E8000230E4000030E5000A128A157A200A1265
:1007F8008A1183160313A0002008DE003430F400A9
:100808008030F5000A30A0002008F6000A168A1188
:10081800AB240A128A11831603135E08F400003011
:10082800F5000630A0002008F6000A168A11AB244D
:100838000A128A111830B23E84008313000883120A
:100848000313E000840A0008E100840A0008E200BB
:10085800840A0008E3000230E4000030E5000A12D0
:100868008A157A200A128A1183160313A000200819
:10087800DE003430F4008030F5000A30A000200893
:10088800F6000A168A11AB240A128A11831603137A
:100898005E08F4000030F5000630A0002008F600DD
:1008A8000A168A11AB240A128A110A300A168A110A
:1008B8005C230A128A110800831203132D08803959
:1008C800B2003208B7002D08B2003207B30033086F
:1008D800BD00AC1F702C712C722C3D143D080319FF
:1008E800762C772C862C3D0A031D7B2C7C2C842CA3
:1008F8000030AD000030AC000030AB000030AA0082
:10090800AC178E2C0030AD000030AC000030AB00CE
:100918000030AA0031088039B2003208B706310821
:10092800B2003207B3003308BC00B01F9C2C9D2CCA
:100938009E2C3C143C080319A22CA32CB22C3C0A74
:10094800031DA72CA82CB02C0030B1000030B0003B
:100958000030AF000030AE00B017BA2C0030B10044
:100968000030B0000030AF000030AE003C08031982
:10097800BE2CBF2CC42C3D08031DC32CC42CCD2C6D
:100988000030AD000030AC000030AB000030AA00F1
:10099800C02F2A08B2003208F30030080A168A115C
:1009A8002C240A128A11740883120313C3007308D3
:1009B800C2004208B200B301B401B5013508BB005A
:1009C8003408BA003308B9003208B8004308B20046
:1009D800B301B401B5013508C1003408C0003308BB
:1009E800BF003208BE002B08B2003208F3002F08FF
:1009F8000A168A112C240A128A1174088312031306
:100A0800C3007308C2004208B200B301B401B501C3
:100A18003208B807330803110318013E0319152DCE
:100A2800B907340803110318013E03191C2DBA072E
:100A3800350803110318013E0319232DBB0743088A
:100A4800B200B301B401B5013208BE07330803117F
:100A58000318013E0319312DBF0734080311031889
:100A6800013E0319382DC007350803110318013E4C
:100A780003193F2DC1072C08B2003208F3002E08D5
:100A88000A168A112C240A128A1174088312031375
:100A9800C3007308C2004208B200B301B401B50133
:100AA8003208B807330803110318013E03195D2DF6
:100AB800B907340803110318013E0319642DBA0756
:100AC800350803110318013E03196B2DBB074308B2
:100AD800B200B301B401B5013208BE0733080311EF
:100AE8000318013E0319792DBF07340803110318B1
:100AF800013E0319802DC007350803110318013E74
:100B08000319872DC1070830B2000310B80DB90DBD
:100B1800BA0DBB0DB20B892D2B08B2003208F300B9
:100B28002E080A168A112C240A128A1174088312B4
:100B38000313C3007308C2004208B2004308B3009D
:100B4800B401B5013208B807330803110318013E90
:100B58000319AF2DB907340803110318013E03190F
:100B6800B62DBA07350803110318013E0319BD2D28
:100B7800BB072A08B2003208F3002F080A168A11A8
:100B88002C240A128A11740883120313C3007308F1
:100B9800C2004208B2004308B300B401B5013208EC
:100BA800B807330803110318013E0319DC2DB907F0
:100BB800340803110318013E0319E32DBA07350859
:100BC80003110318013E0319EA2DBB070830B200D0
:100BD8000310B80DB90DBA0DBB0DB20BEC2D2A08D8
:100BE800B2003208F3002E080A168A112C240A12C1
:100BF8008A11740883120313C3007308C2004208E1
:100C0800B2004308B300B401B5013208B80733088D
:100C180003110318013E0319122EB90734080311F2
:100C28000318013E0319192EBA07350803110318D2
:100C3800013E0319202EBB072B08B2003208F3002F
:100C480030080A168A112C240A128A117408831291
:100C58000313C3007308C2004208B2004308B3007C
:100C6800B401B5013208BE07330803110318013E69
:100C780003193F2EBF07340803110318013E031957
:100C8800462EC007350803110318013E03194D2EDF
:100C9800C1072C08B2003208F3002F080A168A117F
:100CA8002C240A128A11740883120313C3007308D0
:100CB800C2004208B2004308B300B401B5013208CB
:100CC800BE07330803110318013E03196C2EBF0732
:100CD800340803110318013E0319732EC0073508A1
:100CE80003110318013E03197A2EC1072C08B2001C
:100CF8003208F30030080A168A112C240A128A11C5
:100D0800740883120313C3007308C2004208B200B8
:100D18004308B300B401B50108300310B20DB30D98
:100D2800B40DB50DFF3E031D912E3208BE073308E2
:100D380003110318013E0319A22EBF07340803113B
:100D48000318013E0319A92EC0073508031103181B
:100D5800013E0319B02EC1073808B2003908B300A4
:100D68003A08B4003B08B50018300310B50CB40CB1
:100D7800B30CB20CFF3E031DB92E3208BE07330870
:100D880003110318013E0319CA2EBF0734080311C3
:100D98000318013E0319D12EC007350803110318A3
:100DA800013E0319D82EC1070830B2000310B80D50
:100DB800B90DBA0DBB0DB20BDA2E3D083C07B200D7
:100DC800B301B30D3208823EC20033080318013E56
:100DD800FF3EC3000C2F0130B2000310BE0DBF0D43
:100DE800C00DC10DB20BF12EBB1FFB2EFC2EFD2E2C
:100DF8003E140130B2000310B80DB90DBA0DBB0D89
:100E0800B20BFF2EFF30C2070318C30AFF30C30717
:100E1800C01F0F2F102FEF2EBC01BB1F142F152F33
:100E2800312FFF303805B200FF303905B300FF30ED
:100E38003A05B4007F303B05B50035083404330467
:100E480032040319282F292F2C2FBC01BC0A312F5B
:100E58003E1C2F2F302F312F292F3C080319352FF7
:100E6800362F672F0130BE07003003180130BF0747
:100E7800003003180130C007003003180130C107E3
:100E8800411C472F482F672F3E08B2003F08B30088
:100E98004008B4004108B5000130B600350DB50C66
:100EA800B40CB30CB20CB60B522F3508C100340881
:100EB800C0003308BF003208BE000130C207031863
:100EC800C30A0030C3074308803AFF0080307F021E
:100ED800031D702FFF304202031C732F742F7F2FC6
:100EE8007F3083120313C1008030C0000030BF0080
:100EF8000030BE00B42F831203134308803AFF006A
:100F080080307F02031D8A2F0130420203188D2F83
:100F18008E2F9A2F003083120313C1000030C000B7
:100F28000030BF000030BE00B701B42F8312031396
:100F38004208B2003208BD00FF30BE05FF30BF05D1
:100F48007F30C0050030C1053D1CAB2FAC2FAD2F45
:100F5800C0173D08B2000310320CB3003308C100BB
:100F68003708B2003208C1044108AD004008AC009F
:100F78003F08AB003E08AA000800F4000A168A11D0
:100F880075230A128A11831603139115141CCD2F89
:100F9800CE2FCA2F831203131308F3007308F5002A
:100FA8007408031DD82FD92FDF2F0A168A113F2363
:100FB8000A128A11E42F0A168A1148230A128A1182
:100FC800831203138C1DE92FEA2FE42F8C11750867
:100FD8000800F400F3013A3074020318F42FF52FD7
:100FE800FD2F30307402031CFA2FFB2FFD2FF30165
:060FF800F30A730C08006F
:10100C00831203132C08031D0C280D283C282808D8
:10101C00AD002908AE002A08AF002B08B00006303E
:10102C000310AD0DAE0DAF0DB00DFF3E031D162818
:10103C003008A3002F08A2002E08A1002D08A00044
:10104C000030A7003D30A6000930A5000030A400F8
:10105C000A168A110A250A128A158312031320080C
:10106C00FF3E83160313990018116A282808AD0057
:10107C002908AE002A08AF002B08B000043003107A
:10108C00AD0DAE0DAF0DB00DFF3E031D4528300864
:10109C00A3002F08A2002E08A1002D08A0000030EC
:1010AC00A7003D30A6000930A5000030A4000A16A8
:1010BC008A110A250A128A15831203132008FF3E8F
:1010CC008316031399001815831603178701243010
:1010DC008316031398009030831203139800831621
:1010EC000313871707130800DF3083120313E6007E
:1010FC006608EF006308A3006208A2006108A10063
:10110C006008A0000030A7000030A6000030A50049
:10111C000030A4000A168A11EE250A128A1503184B
:10112C0098289928BD282D3083120313E6006F08E8
:10113C0084006608831380000130E6006608EF0720
:10114C006308F6006208F5006108F4006008F3001B
:10115C000A168A1151230A128A1576088312031370
:10116C00E3007508E2007408E1007308E0008312E4
:10117C0003136308C7006208C6006108C500600855
:10118C00C4000A168A1172250A128A1583120313D7
:10119C004708EE004608ED004508EC004408EB005B
:1011AC006E08F6006D08F5006C08F4006B08F3008F
:1011BC0000300A168A1144270A128A1576088312FF
:1011CC000313DB007508DA007408D9007308D80023
:1011DC006308DF006208DE006108DD006008DC00E7
:1011EC000A168A11E3230A128A15831203135B0869
:1011FC00E3005A08E2005908E1005808E0006308CF
:10120C00B1006208B0006108AF006008AE00493060
:10121C00AD007430AC002430AB000030AA000A12D0
:10122C008A1160240A128A15831203132D08C70031
:10123C002C08C6002B08C5002A08C4000A168A11FF
:10124C0072250A128A15831203134708EA0046080E
:10125C00E9004508E8004408E7002930E600660884
:10126C00B1006E08B5006D08B4006C08B3006B08D3
:10127C00B2006A08B9006908B8006808B7006708C6
:10128C00B6006F080A128A152C230A128A15DF3051
:10129C0008008312031331088039B2003208BB00F6
:1012AC003108B2003207B3003308C200B01F5F2907
:1012BC006029612942144208031965296629762997
:1012CC00420A031D6A296B2973290030B1000030D2
:1012DC00B0000030AF000030AE00B017B1017E2975
:1012EC000030B1000030B0000030AF000030AE0074
:1012FC002D088039B2003208BB062D08B200320727
:10130C00B3003308C300AC1F8C298D298E294314DC
:10131C004308031992299329A329430A031D9729EA
:10132C009829A0290030AD000030AC000030AB0093
:10133C000030AA00AC17AD01AB290030AD00003075
:10134C00AC000030AB000030AA002D082C042B049C
:10135C002A04031DB229B329CC290030B100003076
:10136C00B0000030AF000030AE008030B0047F30F1
:10137C00B1043B08B2003208B1043108AD003008AA
:10138C00AC002F08AB002E08AA002B2B4208031D23
:10139C00D029D129DA290030AD000030AC00003062
:1013AC00AB000030AA002B2B4208B200B30133086B
:1013BC00B50043083202B400031CB50334087F3E69
:1013CC00BC0035080318013E003EBD003108BA00D0
:1013DC003008B9002F08B8002E08B7000030B10053
:1013EC000030B0000030AF000030AE000030C10063
:1013FC000030C0000030BF000030BE00C301502AD6
:10140C00430803190A2A0B2A2B2A0130B2000310B5
:10141C00B70DB80DB90DBA0DB20B0D2A0130B200D3
:10142C000310AE0DAF0DB00DB10DB20B162AC11FCE
:10143C00202A212A222A2E140130B2000310BE0DBC
:10144C00BF0DC00DC10DB20B242A2D083A02031D8D
:10145C00392A2C083902031D392A2B083802031D9E
:10146C00392A2A083702031C3C2A3D2A4C2A4117E8
:10147C002A08B7022B08031C2B0FB8022C08031CDC
:10148C002C0FB9022D08031C2D0FBA020130B2002B
:10149C003208C3071A304302031C552A562A062A5F
:1014AC003A0839043804370403195D2A5E2A7D2A68
:1014BC003E147D2A0130B2000310AE0DAF0DB00DFD
:1014CC00B10DB20B622AC11F6C2A6D2A6E2A2E1422
:1014DC000130B2000310BE0DBF0DC00DC10DB20B1B
:1014EC00702AFF30BC070318BD0AFF30BD07B01FC0
:1014FC00802A812A602AC301C11F852A862AA22A32
:10150C00FF303E05B200FF303F05B300FF30400511
:10151C00B4007F304105B50035083404330432047F
:10152C000319992A9A2A9D2AC301C30AA22A2E1C9E
:10153C00A02AA12AA22A9A2A43080319A62AA72A72
:10154C00D82A0130AE07003003180130AF07003045
:10155C0003180130B007003003180130B107311CFB
:10156C00B82AB92AD82A2E08B2002F08B30030089E
:10157C00B4003108B5000130B600350DB50CB40C13
:10158C00B30CB20CB60BC32A3508B1003408B0004A
:10159C003308AF003208AE000130BC070318BD0A97
:1015AC000030BD073D08803AFF0080307F02031DEC
:1015BC00E12AFF303C02031CE42AE52AF32AFF301F
:1015CC0083120313BC000030BD000030B1000030AA
:1015DC00B0000030AF000030AE00831203133D08A2
:1015EC00803AFF0080307F02031DFE2A01303C024E
:1015FC000318012B022B0F2B83120313BC01BD010B
:10160C000030B1000030B0000030AF000030AE0050
:10161C00BB01831203133C08B2003208C200421C07
:10162C00182B192B1B2BB0171F2B7F30B200320835
:10163C00B0054208B2000310320CB3003308B100FD
:10164C003B08B2003208B104C3290800831203130B
:10165C00C5003230BA003A08C000612D25304A0668
:10166C000319392B3A2B462B4A08BA00450884003B
:10167C003A08831380000130BA003A08C507612D7F
:10168C00C601C701BF01310884000A168A110A205D
:10169C000A128A150A128A11ED270A128A15031CDE
:1016AC00582B592B992B83120313C601C7010A30EF
:1016BC00F3000030F400831203134708F6004608C9
:1016CC00F5000A168A1107240A128A157408831267
:1016DC000313C7007308C600310884000A168A1168
:1016EC000A200A128A15D03EBA00FF3003180030C7
:1016FC00BB003A08C6070318C70A3B08C7070130E6
:10170C00BA003A08B107310884000A168A110A2077
:10171C000A128A150A128A11ED270A128A15031861
:10172C00982B992B5D2B83120313310884000A1616
:10173C008A110A200A128A152E3A031DA62BA72BF2
:10174C00EB2B0130BA003A08B107C801C901DA2BFA
:10175C000A30F3000030F400831203134908F6003A
:10176C004808F5000A168A1107240A128A1574080B
:10177C0083120313C9007308C800310884000A16C9
:10178C008A110A200A128A15D03EBA00FF300318BB
:10179C000030BB003A08C8070318C90A3B08C90740
:1017AC000130BA003A08B107310884000A168A11D0
:1017BC000A200A128A150A128A11ED270A128A15B2
:1017CC000318E92BEA2BAE2BF52BC801C901F52B1D
:1017DC003F16F52BC030BA003A08BF04142C013068
:1017EC0083120313B107FF30310784000A168A11E4
:1017FC000A200A128A15CA00BA00BB013B08003A3B
:10180C000319092C612D3A08003A0319732D6C3A0F
:10181C000319EE2B193A0319F02B612D3F1E172CCF
:10182C00182C2B2C4008840083130008C100840A58
:10183C000008C200840A0008C300840A0008C4001F
:10184C000430BA003A08C0073D2C400884008313CA
:10185C000008BA00840A0008BB003A08C1003B0823
:10186C00C200C301C4010230BA003A08C0074808DC
:10187C004904031D422C432C512C440843044204BC
:10188C004104031D4A2C4B2C512C0130C807031862
:10189C00C90A0030C907CA01CA0A4A08BA0001308D
:1018AC000310BA0DFF3E031D562C03103A0D013EDA
:1018BC0084000A168A110A200A128A15BB000A161D
:1018CC008A110A200A128A15BC000A168A110A20EB
:1018DC000A128A15BD000A168A110A200A128A15E4
:1018EC00BE003E084402031D852C3D084302031D27
:1018FC00852C3C084202031D852C3B084102031831
:10190C00882C892C8A2C942C0130BA003A08CA07EE
:10191C000A304A06031D932C942C532C4908803A08
:10192C00803C031D9B2C48084A0203189E2C9F2CBC
:10193C00A62C831203134808BA003A08CA00BE2C1E
:10194C00831203134908803ABA0080303A02031D0F
:10195C00B12C4A0848020318B42CB52CBE2C8312A7
:10196C0003134A08BA00BB013A08C8003B08C90077
:10197C00831203134708803A803C031DC72C46088A
:10198C004A020318CA2CCB2CD72C831203134A08F7
:10199C00BA00BB013A08C6023B08031CC703C702C6
:1019AC00DB2C83120313C601C70146084704031935
:1019BC00E02CE12C532D2030BA00450884003A0865
:1019CC00831380000130BA003A08C507FF30C60700
:1019DC000318C70AFF30C70746084704031DF72C36
:1019EC00F82CE12C532D0030AB000030AA00003055
:1019FC00A9000A30A8004808BA0001300310BA0D3B
:101A0C00FF3E031D042D03103A0D013E84000A16FF
:101A1C008A110A200A128A15A0000A168A110A20B5
:101A2C000A128A15A1000A168A110A200A128A15AE
:101A3C00A2000A168A110A200A128A15A300440869
:101A4C00A7004308A6004208A5004108A4000A16F6
:101A5C008A110A250A128A15831203132308AF0070
:101A6C002208AE002108AD002008AC000A168A112D
:101A7C0055240A128A15831203132808303EBB0022
:101A8C003B08CA004A08BA00450884003A08831388
:101A9C0080000130BA003A08C507FF30C8070318A8
:101AAC00C90AFF30C907480A031D602D490A031DE6
:101ABC00602D612DF92C0130B107FF303107840006
:101ACC000A168A110A200A128A15BA003A08CA00A4
:101ADC004A08031D722D732D342B45088400831383
:101AEC00800108008312031347088039CC004C088E
:101AFC00D4004708CC004C07CD004D08D600C61FBB
:101B0C00882D892D8A2D5614560803198E2D8F2D4C
:101B1C009F2D560A031D932D942D9C2D0030C7002C
:101B2C000030C6000030C5000030C400C617C70125
:101B3C00A72D0030C7000030C6000030C5000030B3
:101B4C00C4004B088039CC004C08D500550854060D
:101B5C000319B12DB22DB32D54174B08CC004C07E3
:101B6C00CD004D08D500CA1FBC2DBD2DBE2D551462
:101B7C0055080319C22DC32DD32D550A031DC72D8E
:101B8C00C82DD02D0030CB000030CA000030C90069
:101B9C000030C800CA17CB01DB2D0030CB00003061
:101BAC00CA000030C9000030C8005608550203189E
:101BBC00E02DE12D252E541FE42DE52DE92D80304F
:101BCC00CC004C08D4065608CC004C08D70055085D
:101BDC00CC004C08D6005708CC004C08D500440863
:101BEC00CC004C08D7004808CC004C08C40057085F
:101BFC00CC004C08C8004508CC004C08D70049085C
:101C0C00CC004C08C5005708CC004C08C90046084D
:101C1C00CC004C08D7004A08CC004C08C60057082A
:101C2C00CC004C08CA004708CC004C08D7004B0825
:101C3C00CC004C08C7005708CC004C08CB00D7018F
:101C4C005508CC00CD014D08CF0056084C02CE00F3
:101C5C00031CCF034F08803AFF0080307F02031D26
:101C6C00392E1A304E02031C3C2E3D2E7A2E831236
:101C7C0003134708460445044404031D462E482E0E
:101C8C000130492E0030CC004C08D7000030C70082
:101C9C000030C6000030C5000030C4005508CC0030
:101CAC004C08D600822E571C5C2E5D2E662E5708D3
:101CBC00CC0003104C0C0138CD004D08D700682E19
:101CCC000310D70C441C6B2E6C2E6D2ED7170130C5
:101CDC00CC00470DC70CC60CC50CC40CCC0B6F2E1E
:101CEC000130CC004C08D60783120313550856025A
:101CFC00031C812E822E592E541B852E862ED12EFE
:101D0C005608031D8A2E8B2E942E0030C7000030EF
:101D1C00C6000030C5000030C400FF2F4808C407BF
:101D2C00490803110318013E03199D2EC5074A08E3
:101D3C0003110318013E0319A42EC6074B08031107
:101D4C000318013E0319AB2EC707471CAE2EAF2E4E
:101D5C00852F571CB22EB32EBC2E5708CC00031067
:101D6C004C0C0138CD004D08D700BE2E0310D70CFB
:101D7C00441CC12EC22EC32ED7170130CC00470DE8
:101D8C00C70CC60CC50CC40CCC0BC52E0130CC003A
:101D9C004C08D607852F4708803AFF004B08803A3D
:101DAC007F02031DE32E4A084602031DE32E490859
:101DBC004502031DE32E480844020318E62EE72EC5
:101DCC003F2FFF30CC00FF30CD00FF30CE00FF3076
:101DDC00CF004808D0004908D1004A08D2004B086F
:101DEC00D3004408D0024508031C450FFE2EFF2EDD
:101DFC00D1024608031C460F042F052FD2024708B8
:101E0C00031C470F0A2F0B2FD3025008CC07510885
:101E1C000318510F122F132FCD0752080318520F0E
:101E2C00182F192FCE0753080318530ACF074F0842
:101E3C00C7004E08C6004D08C5004C08C4008030D1
:101E4C00CC004C08D406D709D70A5708031D2F2FEE
:101E5C00302F4D2F0130C407003003180130C50757
:101E6C00003003180130C607003003180130C707D3
:101E7C004D2F4808C4024908031C490FC5024A08E3
:101E8C00031C4A0FC6024B08031C4B0FC702470822
:101E9C00460445044404031D542F552F812F570825
:101EAC00031D592F5A2F812F0030C7000030C60058
:101EBC000030C5000030C400FF2F0130CC000310EF
:101ECC00C40DC50DC60DC70DCC0B652FD71F6F2FBD
:101EDC00702F712F4414571C742F752F782F0314E7
:101EEC00D70D7A2F0310D70D560803197E2F7F2F8D
:101EFC00812F0130D602C61F842F852F632FD50169
:101F0C00D71F892F8A2F982F57087F3903198F2FA6
:101F1C00902F932FD501D50A982F441C962F972FCD
:101F2C00982F902F550803199C2F9D2FD12F0130DE
:101F3C00C407003003180130C50700300318013006
:101F4C00C607003003180130C707471CAE2FAF2F50
:101F5C00D12F4408CC004508CD004608CE004708D8
:101F6C00CF000130D0004F0DCF0CCE0CCD0CCC0CD3
:101F7C00D00BB92F4F08C7004E08C6004D08C5003E
:101F8C004C08C400560A0319CC2FCD2FD12F013089
:101F9C00CC004C08D607560A0319D52FD62FDB2FA9
:101FAC005608031DDA2FDB2FE92F0030C700003055
:101FBC00C6000030C5000030C4005608031DE72FD2
:101FCC00E82FE92FD401561CEC2FED2FEF2FC6175D
:101FDC00F32F7F30CC004C08C6055608CC000310FC
:101FEC004C0CCD004D08C700D41FFD2FFE2FFF2F2A
:101FFC00C7170800FF1B0A2883137F1883170008D4
:10200C00840A0319FF0A080010308A000408840AA5
:10201C008207003401340034003400340A340034B4
:10202C00003400346434003400340034E8340334B5
:10203C00003400341034273400340034A034863497
:10204C0001340034403442340F340034803496343C
:10205C00983400340034E134F53405340034CA3497
:10206C009A343B3425346C3475342E342534363460
:0E207C002E3436346C34753400342034003485
:10264A0064008001840A0406031900340406262B58
:10265A000A168A1175230A168A118316031311158D
:10266A0008000A168A1175230A168A11831603139B
:10267A00911408008316031391121116111A462B8E
:10268A00472B432B08008316031391161116111AB0
:10269A004F2B502B4C2B08007608750474047304D6
:1026AA000319582B592B5B2B8030F6060800F300D0
:1026BA0083160313981C622B632B5D2B73088312FA
:1026CA000313990008002830831203139400831619
:1026DA000313910194010930930087150716080026
:1026EA008316031314197A2B7B2B752B11081F39A8
:1026FA00031D802B812B752B080083160317880175
:10270A008316031385018312031385018B170B1795
:10271A00831603138C160800F3000A168A11752310
:10272A000A168A1173088312031393008C1D9E2BB9
:10273A009F2B9B2B8C110800F4000A168A11752313
:10274A000A168A1183160313111474080A168A11B9
:10275A0091230A168A110800831203138C1EB62BC2
:10276A00B72BBB2B1A08F0007008FA0072088A000F
:10277A00710E8300FE0E7E0E0900063083160317C3
:10278A00920013309100AD309000900BCA2B910B40
:10279A00CA2B920BCA2B0A168A1182230A168A118D
:1027AA000A168A1192260A168A110A128A111D20FD
:1027BA000A168A11DA2B0A128A110C28803083121F
:1027CA000313DB065F08C7005E08C6005D08C50084
:1027DA005C08C4005B08CB005A08CA005908C90043
:1027EA005808C8000A128A1578250A168A1183120F
:1027FA0003134708DB004608DA004508D9004408F5
:10280A00D8000800F701F801731C0C2C0D2C132CAE
:10281A007508F7070318F80A7608F8070130031055
:10282A00F50DF60DFF3E031D142C01300310F40CB8
:10283A00F30CFF3E031D1B2C73087404031D262C86
:10284A00272C092C7808F4007708F3000800831273
:10285A000313A400A001A1017308F500F60175088D
:10286A00A2007608A300241C3B2C3C2C422C2208F4
:10287A00A0070318A10A2308A10701300310A20D1B
:10288A00A30DFF3E031D432C0310A40C2408031DB3
:10289A004F2C502C382C2108F4002008F300080093
:1028AA00831203132B082A042904280403195E2C13
:1028BA005F2CA22CB001B00A6F2C0130F900031072
:1028CA00A80DA90DAA0DAB0DF90B642C0130F90066
:1028DA007908B007AB1F722C732C622C2B082F02BD
:1028EA00031D812C2A082E02031D812C29082D0282
:1028FA00031D812C28082C02031C842C852C932C64
:10290A002808AC022908031C290FAD022A08031C57
:10291A002A0FAE022B08031C2B0FAF020130031043
:10292A00AB0CAA0CA90CA80CFF3E031D942C013079
:10293A00B002031DA12CA22C732C2F08AB002E0869
:10294A00AA002D08A9002C08A80008008312031366
:10295A00A001A101A001A101D62C20087407F8004A
:10296A007508F7000318F70AA01FBC2CF7037708AD
:10297A00F900790883120313FF00780884000A1605
:10298A008A1100200A168A110A168A115C230A166D
:10299A008A11013083120313A0070318A10A003019
:1029AA00A1072108803AF70080307702031DDF2C47
:1029BA00760820020318E22CE32C012D831203135C
:1029CA0020087407F8007508F7000318F70AA01F13
:1029DA00EF2CF7037708F900790883120313FF0035
:1029EA00780884000A168A1100200A168A11003A09
:1029FA00031D002D012DB22C2730F800F530F70009
:102A0A00F70B052DF80B052D08000030F7000030F4
:102A1A00F6000030F5000030F40083120313230897
:102A2A0022042104200403191B2D1C2D692DF801F1
:102A3A00F80A2C2D0130F3000310A00DA10DA20DF0
:102A4A00A30DF30B212D0130F3007308F807A31F20
:102A5A002F2D302D1F2D0130F3000310F40DF50D2D
:102A6A00F60DF70DF30B322D23082702031D472D10
:102A7A0022082602031D472D21082502031D472D82
:102A8A0020082402031C4A2D4B2D5A2D2008A4028B
:102A9A002108031C210FA5022208031C220FA602EB
:102AAA002308031C230FA702741401300310A30C7C
:102ABA00A20CA10CA00CFF3E031D5B2D0130F802F5
:102ACA00031D682D692D302D7708A3007608A20012
:102ADA007508A1007408A0000800031083120313EC
:102AEA00460D470DC8004808F8007808031D7E2DDA
:102AFA007F2D882D0030C7000030C6000030C50089
:102B0A000030C400ED2D4408C8004508C900460835
:102B1A00CA004708CB001F300310CB0CCA0CC90CE3
:102B2A00C80CFF3E031D912D4808CC004C08F70045
:102B3A00C617FF30C405FF30C505FF30C605003093
:102B4A00C7059630F802F81FAB2DAC2DC62D7808B4
:102B5A00803A973E0318B22DB32DB42D7F2D013044
:102B6A000310C70CC60CC50CC40CFF3E031DB52DC3
:102B7A000130C8004808F807031DC42DC52DB42D1F
:102B8A00DD2D20307802031CCB2DCC2DD82D7F2DA6
:102B9A000130C8000310C40DC50DC60DC70DC80B02
:102BAA00CF2D0130F8027808031DDC2DDD2DCD2D47
:102BBA0077080319E12DE22DED2DC409C509C609CF
:102BCA00C709C40A0319C50A0319C60A0319C70A99
:102BDA0008000030831203132005F300003021059A
:102BEA00F40080302205F5007F302305F6007608D0
:102BFA00750474047304031D032E042E0C2E003076
:102C0A00A3000030A2000030A1000030A000003074
:102C1A002405F30000302505F40080302605F50070
:102C2A007F302705F6007608750474047304031DC3
:102C3A001F2E202E282E0030A7000030A6000030BC
:102C4A00A5000030A400A31F2B2E2C2E502E0030DE
:102C5A00F3000030F4000030F5008030F600200860
:102C6A00F3022108031C210F3B2E3C2EF4022208FA
:102C7A00031C220F412E422EF5022308031C230FA8
:102C8A00472E482EF6027608A3007508A20074089B
:102C9A00A1007308A000A71F532E542E782E0030CF
:102CAA00F3000030F4000030F5008030F60024080C
:102CBA00F3022508031C250F632E642EF40226084E
:102CCA00031C260F692E6A2EF5022708031C270FFC
:102CDA006F2E702EF6027608A7007508A6007408F3
:102CEA00A5007308A4008030A3068030A706270831
:102CFA002302031D8A2E26082202031D8A2E250876
:102D0A002102031D8A2E2408200203188D2E8E2EDE
:102D1A00902E0310912E031408000A168A116823B4
:102D2A000A168A11003083120313AB000030AA007E
:102D3A002530A9008030A800AC01AC0A0A128A1515
:102D4A0006200A168A11D0300A168A11A1230A16F9
:102D5A008A116B300A168A1191230A168A110130D8
:102D6A000A168A1191230A168A110A168A112D2324
:102D7A000A168A11D0300A168A11A1230A168A1154
:102D8A0000300A168A1191230A168A110A168A1124
:102D9A002D230A168A11D0300A168A11A1230A167F
:102DAA008A1119300A168A1191230A168A110830D3
:102DBA000A168A1191230A168A110A168A112D23D4
:102DCA000A168A11D0300A168A11A1230A168A1104
:102DDA001A300A168A1191230A168A1100300A1625
:102DEA008A1191230A168A110A168A112D230A16A4
:102DFA008A11D0300A168A11A1230A168A111B30A9
:102E0A000A168A1191230A168A1100300A168A11A3
:102E1A0091230A168A110A168A112D230A168A1173
:102E2A00D0300A168A11A1230A168A111C300A16F2
:102E3A008A1191230A168A1100300A168A119123DF
:102E4A000A168A110A168A112D230A168A1168305F
:102E5A000A168A11A1230A168A116C300A168A11D7
:102E6A0091230A168A1100300A168A1191230A162A
:102E7A008A110A168A112D230A168A11080083124A
:102E8A000313A400240803194B2F4C2F602FF61F9D
:102E9A004F2F502F602F7309A6007409A7007509D8
:102EAA00A8007609A900A60A0319A70A0319A80AFD
:102EBA000319A90A682F7608A9007508A8007408DA
:102ECA00A7007308A6007608750474047304031D2A
:102EDA006F2F702F792F0030F6000030F500003088
:102EEA00F4000030F300FF2F9630A0002008A50060
:102EFA008B2F0130A0002008A50701300310A90C70
:102F0A00A80CA70CA60CFF3E031D832FFE30290533
:102F1A00031D902F912F7E2FAD2F0130A000200886
:102F2A00A5070130A607003003180130A7070030B3
:102F3A0003180130A807003003180130A90701302F
:102F4A000310A90CA80CA70CA60CFF3E031DA52F65
:102F5A00FF302905031DB22FB32F922FBF2F013047
:102F6A00A5020130A0000310A60DA70DA80DA90DFA
:102F7A00A00BB82FA81BC22FC32FC92F02302502BE
:102F8A000318C82FC92FB42F2518CC2FCD2FD52F12
:102F9A00FF30A605FF30A7057F30A805FF30A90539
:102FAA000310A50C2508A000A101A201A301183055
:102FBA000310A00DA10DA20DA30DFF3E031DDD2FD1
:102FCA002008A6042108A7042208A8042308A904A3
:102FDA0024080319F12FF22FF72FF61FF52FF62FDA
:102FEA00F72FA9172908F6002808F5002708F40082
:062FFA002608F3000800A8
:04400E00D420FF3F7C
:00000001FF
