:020000040000FA
:060000000A128A110C280F
:10000800FE00030EF1000A08F2000A128A111528F0
:100018000A128A110F28F301F40183010A128A11C6
:100028006A288B130B1C19281A282F2883120313EC
:10003800061C1F28202824280130F4027408880090
:10004800861C272828282E280130F0007008F4077D
:10005800740888000B10831203138C1D342835286C
:100068003C281308F0007008F300740893008C1102
:100078008B1372088A00710E8300FE0E7E0E090033
:10008800831603178801890103308316031386003A
:100098008312031386018316031388018312031343
:1000A80088012030831603138500183087009401D7
:1000B800910134308312031394000830831603131C
:1000C8008C0003309600C8308B0008000A128A1191
:1000D80044200A128A1174088312031388006F28B7
:0600E8000A128A110C2827
:04400E00D120FF3F7F
:00000001FF
