:020000040000FA
:060000000A128A110C280F
:10000800FE00030EF1000A08F2000A128A114128C4
:100018000A128A110F28F30183010A128A116D2826
:1000280083160313890183120313890183160317A7
:1000380089010130880001308316031385000330DD
:100048008600831203138601831603138701831224
:10005800031387018316031388018312031388018E
:1000680055309F0084308316031381006430831257
:1000780003138100E8308B000800E8308B00033060
:100088008316031396000B1C4A284B2866288B1DE1
:100098004E284F28662883120313061C5428552817
:1000A8005A280A128A117A200A128A118312031313
:1000B800861C5F28602865280A128A117F200A1288
:1000C8008A110B1072088A00710E8300FE0E7E0ED4
:1000D80009000A128A1114200A128A11730883125D
:1000E8000313880072280A128A110C280130F000C4
:0C00F8007008F30708000130F302080054
:04400E00D120FF3F7F
:00000001FF
