:020000040000FA
:060000000A128A11FB2F19
:100F50000130F30208000130F0007008F3070800C8
:100F60008316031788018901033083160313860053
:100F7000831203138601831603138701831203135D
:100F80008701831603138801831203138801080065
:100F90000A128A11B0270A128A11730883120313E6
:100FA0008800061CD42FD52FE32F4130F200EE30FD
:100FB000F100F10BD92FF20BD92F00000A128A1180
:100FC000AB270A128A1183120313861CE82FE92F1C
:100FD000CD2F4130F200EE30F100F10BED2FF20B8E
:100FE000ED2F00000A128A11A8270A128A11CD2FAC
:100FF0000A128A110028F30183010A128A11C82FEC
:04400E00D120FF3F7F
:00000001FF
