:020000040000FA
:060000000A128A110C280F
:10000800FE00030EF1000A08F2000A128A11952A6E
:100018000A128A110F28F801F901FA0183010A125C
:100028008A11A6290330F5009730F400F40B1A283A
:10003800F50B1A281F2853300A128A11D9220A12DE
:100048008A110330F5009730F400F40B2928F50BDA
:1000580029282E2831300A128A11D9220A128A1127
:100068000330F5009730F400F40B3828F50B3828E6
:100078003D283A300A128A11D9220A128A1103300D
:10008800F5009730F400F40B4728F50B47284C2867
:1000980020300A128A11D9220A128A110330F50077
:1000A8009730F400F40B5628F50B56285B282030BF
:1000B8000A128A11D9220A128A110330F5009730E0
:1000C800F400F40B6528F50B65286A2820300A121D
:1000D8008A11D9220A128A110330F5009730F400E8
:1000E800F40B7428F50B7428792853300A128A11F6
:1000F800D9220A128A110330F5009730F400F40B64
:100108008328F50B8328882832300A128A11D922CD
:100118000A128A110330F5009730F400F40B922884
:10012800F50B922897283A300A128A11D9220A1216
:100138008A110330F5009730F400F40BA128F50B71
:10014800A128A62820300A128A11D9220A128A1157
:100158000330F5009730F400F40BB028F50BB02805
:10016800B52820300A128A11D9220A128A110330BE
:10017800F5009730F400F40BBF28F50BBF28C4280E
:1001880020300A128A11D9220A128A110330F50086
:100198009730F400F40BCE28F50BCE28D328533033
:1001A8000A128A11D9220A128A110330F5009730EF
:1001B800F400F40BDD28F50BDD28E22833300A12B1
:1001C8008A11D9220A128A110330F5009730F400F7
:1001D800F40BEC28F50BEC28F1283A300A128A11B6
:1001E800D9220A128A110330F5009730F400F40B73
:1001F800FB28F50BFB28002920300A128A11D92286
:100208000A128A110330F5009730F400F40B0A291A
:10021800F50B0A290F290A128A11E5220A128A11F6
:100228000330F5009730F400F40B1829F50B182962
:100238001D29080000300A128A1168210A128A1141
:10024800343083120313A100F130A000A00B2A2937
:10025800A10B2A2930300A128A114E220A128A1159
:100268000D3083120313A100FB30A000A00B3A2924
:10027800A10B3A2930300A128A114E220A128A1129
:10028800273083120313A100F430A000A00B4A29E1
:10029800A10B4A29000030300A128A114E220A1294
:1002A8008A1138300A128A114E220A128A110C3029
:1002B8000A128A114E220A128A1106300A128A116B
:1002C8004E220A128A110800F300731C6C296D294A
:1002D8007129831203130814742983120313081055
:1002E800F31C772978297A2988147B298810731DAB
:1002F8007E297F298129081582290811F31D85295E
:1003080086298829881589298811731E8C298D29A1
:100318008F29081690290812F31E932994299629E3
:10032800881697298812731F9A299B299D290817CF
:100338009E290813F31FA129A229A4298817A529F2
:10034800881308000A128A1100220A128A110A1256
:100358008A111E210A128A110A128A1116200A12FB
:100368008A110A128A11BB220A128A110A128A11E8
:10037800CA220A128A11033083120313A400973089
:10038800A300A30BC529A40BC52983120313861345
:10039800FF3093000A128A11E5220A128A11B02945
:1003A8000A128A110C2883120313A000A101A201CA
:1003B800F2292108200784000A128A1168220A12E9
:1003C8008A110A128A117F220A128A1101308312B5
:1003D8000313A1070318A20A0030A2072108200767
:1003E80084000A128A1168220A128A11003A031D2F
:1003F800FE29FF29DD2908008316031789018316C2
:100408000313880183120313880187010A128A11D2
:10041800AA220A128A111F3083160313860060303D
:100428008312031386001030831603138700940188
:10043800910130308312031394000830831603139C
:100448008C00C0308B00080083120313A100210325
:10045800031D2F2A302A3C2A77087F3EA000200857
:10046800A20022080A128A114E220A128A114D2A63
:1004780002302106031D412A422A4D2A7708BF3E31
:10048800A0002008A20022080A128A114E220A128D
:100498008A110800F60083120313871076080A12DF
:1004A8008A1168210A128A118312031307141A3059
:1004B800F500F830F400F40B5F2AF50B5F2A000012
:1004C800831203130710080002308A000408840A04
:1004D80082070034533431343A3420342034203401
:1004E800533432343A3420342034203453343334BF
:1004F8003A3420340034F500831203138714750846
:100508000A128A1168210A128A1183120313071426
:100518001A30F400F40B8E2A00008312031307101C
:1005280008008B13831203138C1D9B2A9C2AA22A72
:100538001308F0007008FA0086178C118B177208E0
:100548008A00710E8300FE0E7E0E09001930831694
:10055800031399009A018316031787012430831621
:100568000313980090308312031398000800F701D2
:10057800F70A01300A128A1128220A128A11013058
:100588000A128A11D7210A128A110800F701F70AFC
:1005980002300A128A1128220A128A117A080A12CB
:1005A8008A117F220A128A110800F30083160313A6
:1005B800981CDF2AE02AE42A73088312031399009F
:1005C800080083160313981CEA2AEB2AEF2A0D3039
:0805D8008312031399000800CF
:04400E00D120FF3F7F
:00000001FF
