:020000040000FA
:060000000A128A110C280F
:10000800FE00030EF1000A08F2000A128A11B52D4B
:100018000A128A110F280A128A1133270A128A1122
:10002800BE000A128A1134270A128A11BF00B701CA
:10003800B801B901BA01BB01BC01BD01F801F90160
:10004800FA0183010A128A11222BF701F70A0230FA
:100058000A128A1162260A128A117830831203134F
:10006800A3002308F3003D080A128A11A1230A12EB
:100078008A1178080A128A11BC260A128A1178088D
:100088000A128A111C270A128A11033083120313D9
:10009800A4009730A300A30B4F28A40B4F282E30A1
:1000A8000A128A11BC260A128A112E300A128A11E3
:1000B8001C270A128A11033083120313A4009730F5
:1000C800A300A30B6528A40B6528783083120313BB
:1000D800A3002308F3003C080A128A11A1230A127C
:1000E8008A1178080A128A11BC260A128A1178081D
:1000F8000A128A111C270A128A1103308312031369
:10010800A4009730A300A30B8728A40B8728783076
:1001180083120313A3002308F3003B080A128A1171
:10012800A1230A128A1178080A128A11BC260A1217
:100138008A1178080A128A111C270A128A110330B8
:1001480083120313A4009730A300A30BA928A40BC0
:10015800A92856300A128A11BC260A128A1156306A
:100168000A128A111C270A128A11033083120313F8
:10017800A4009730A300A30BBF28A40BBF281230FC
:100188000A128A1139260A128A1120300A128A1193
:100198001C270A128A11033083120313A400973014
:1001A800A300A30BD528A40BD52820300A128A1146
:1001B8001C270A128A11033083120313A4009730F4
:1001C800A300A30BE528A40BE5287A3083120313B8
:1001D800A3002308F3007930A4002408F400393080
:1001E800A5002508F5003E080A128A1146250A12BC
:1001F8008A11783083120313A3002308F300390807
:100208000A128A11A1230A128A1178080A128A117D
:10021800BC260A128A1178080A128A111C270A12A7
:100228008A11033083120313A4009730A300A30B91
:100238001B29A40B1B29783083120313A30023085E
:10024800F30079080A128A11A1230A128A11780880
:100258000A128A11BC260A128A1178080A128A110F
:100268001C270A128A11033083120313A400973043
:10027800A300A30B3D29A40B3D2978308312031357
:10028800A3002308F3007A080A128A11A1230A128C
:100298008A1178080A128A11BC260A128A1178086B
:1002A8000A128A111C270A128A11033083120313B7
:1002B800A4009730A300A30B5F29A40B5F29123079
:1002C8000A128A1139260A128A1120300A128A1152
:1002D8001C270A128A11033083120313A4009730D3
:1002E800A300A30B7529A40B752920300A128A11C3
:1002F8001C270A128A11033083120313A4009730B3
:10030800A300A30B8529A40B85297A308312031334
:10031800A3002308F3007930A4002408F40039303E
:10032800A5002508F5003A080A128A1146250A127E
:100338008A11783083120313A3002308F3003908C5
:100348000A128A11A1230A128A1178080A128A113C
:10035800BC260A128A1178080A128A111C270A1266
:100368008A11033083120313A4009730A300A30B50
:10037800BB29A40BBB29783083120313A3002308DD
:10038800F30079080A128A11A1230A128A1178083F
:100398000A128A11BC260A128A1178080A128A11CE
:1003A8001C270A128A11033083120313A400973002
:1003B800A300A30BDD29A40BDD29783083120313D6
:1003C800A3002308F3007A080A128A11A1230A124B
:1003D8008A1178080A128A11BC260A128A1178082A
:1003E8000A128A111C270A128A1103308312031376
:1003F800A4009730A300A30BFF29A40BFF294330C7
:100408000A128A11BC260A128A1143300A128A116A
:100418001C270A128A11033083120313A400973091
:10042800A300A30B152AA40B152A08000330F50016
:100438009730F400F40B1E2AF50B1E2A232A53309A
:100448000A128A111C270A128A110330F500973004
:10045800F400F40B2D2AF50B2D2A322A31300A121A
:100468008A111C270A128A110330F5009730F4000C
:10047800F40B3C2AF50B3C2A412A3A300A128A111D
:100488001C270A128A110330F5009730F400F40B88
:100498004B2AF50B4B2A502A20300A128A111C27A6
:1004A8000A128A110330F5009730F400F40B5A2A27
:1004B800F50B5A2A5F2A20300A128A111C270A12C1
:1004C8008A110330F5009730F400F40B692AF50B14
:1004D800692A6E2A20300A128A111C270A128A11E8
:1004E8000330F5009730F400F40B782AF50B782ADE
:1004F8007D2A53300A128A111C270A128A110330E6
:10050800F5009730F400F40B872AF50B872A8C2A1C
:1005180032300A128A111C270A128A110330F50098
:100528009730F400F40B962AF50B962A9B2A3A305A
:100538000A128A111C270A128A110330F500973013
:10054800F400F40BA52AF50BA52AAA2A20300A12D2
:100558008A111C270A128A110330F5009730F4001B
:10056800F40BB42AF50BB42AB92A20300A128A11DE
:100578001C270A128A110330F5009730F400F40B97
:10058800C32AF50BC32AC82A20300A128A111C274D
:100598000A128A110330F5009730F400F40BD22ABE
:1005A800F50BD22AD72A53300A128A111C270A12AD
:1005B8008A110330F5009730F400F40BE12AF50BAB
:1005C800E12AE62A33300A128A111C270A128A11F4
:1005D8000330F5009730F400F40BF02AF50BF02AFD
:1005E800F52A3A300A128A111C270A128A11033096
:1005F800F5009730F400F40BFF2AF50BFF2A042BC3
:1006080020300A128A111C270A128A110330F500B9
:100618009730F400F40B0E2BF50B0E2B132B0A124C
:100628008A1128270A128A110330F5009730F4003E
:10063800F40B1C2BF50B1C2B212B08000A128A111A
:10064800E2250A128A110A128A1182240A128A11D0
:100658000A128A111A220A128A110A128A110E27FC
:100668000A128A11073083120313B4007C30B300D6
:10067800B30B3C2BB40B3C2B00000A128A11002749
:100688000A128A11073083120313B4007C30B300B6
:10069800B30B4C2BB40B4C2B00000A128A11F22618
:1006A8000A128A11073083120313B4007C30B30096
:1006B800B30B5C2BB40B5C2B00003A308312031392
:1006C800B3003308AA00AB01FF30B4003408AC0013
:1006D8000D30B5003508AD009630B6003608AE00CE
:1006E80038080A128A1181250A128A113D308312AC
:1006F8000313B3003308F3003C30B4003408F400AB
:100708003B30B5003508F5003F080A128A110A2562
:100718000A128A110A128A11E3260A128A110A1287
:100728008A1129200A128A110A128A1128270A1204
:100738008A11312B0A128A110C28F600F02B30305E
:10074800F4007308840074088000182C3130F40019
:100758007308840074088000182C3230F400730881
:10076800840074088000182C3330F4007308840067
:1007780074088000182C3430F4007308840074085E
:100788008000182C3530F400730884007408800049
:10079800182C3630F4007308840074088000182C74
:1007A8003730F4007308840074088000182C38303F
:1007B800F4007308840074088000182C3930F400A1
:1007C8007308840074088000182C3F30F400730804
:1007D800840074088000182C7608F400F501750868
:1007E800003A0319F82BE92B7408003A0319A32BD4
:1007F800013A0319AA2B033A0319B12B013A031939
:10080800B82B073A0319BF2B013A0319C62B033A31
:100818000319CD2B013A0319D42B0F3A0319DB2BFB
:10082800013A0319E22BE92B080083120313A701ED
:10083800A31F1F2C202C272CA209A309A20A0319E5
:10084800A30AA701A70AA51F2A2C2B2C342CA4091C
:10085800A509A40A0319A50A0130F7007708A70615
:10086800A801A9012208230403193B2C3C2C732C52
:10087800A601A60A4A2C01300310A20DA30DFF3EC3
:10088800031D402C0130F7007708A607A31F4D2C45
:100898004E2C3F2C01300310A80DA90DFF3E031D5F
:1008A8004F2C23082502031D5B2C22082402031C5D
:1008B8005E2C5F2C662C2208A4022308031CA503C7
:1008C800A502281401300310A30CA20CFF3E031D3F
:1008D800672C0130A602031D722C732C4E2C27089E
:1008E8000319772C782C7D2CA809A909A80A0319C3
:1008F800A90A2908A3002808A200080000300A1243
:100908008A11CC240A128A11343083120313A100ED
:10091800F130A000A00B8E2CA10B8E2C30300A12C7
:100928008A11A2260A128A110D3083120313A1001C
:10093800FB30A000A00B9E2CA10B9E2C30300A127D
:100948008A11A2260A128A11273083120313A100E2
:10095800F430A000A00BAE2CA10BAE2C0000303060
:100968000A128A11A2260A128A1138300A128A112A
:10097800A2260A128A110C300A128A11A2260A1219
:100988008A1106300A128A11A2260A128A11080050
:10099800F300731CD02CD12CD52C8312031308140C
:1009A800D82C831203130810F31CDB2CDC2CDE2C50
:1009B8008814DF2C8810731DE22CE32CE52C081515
:1009C800E62C0811F31DE92CEA2CEC2C8815ED2CEB
:1009D8008811731EF02CF12CF32C0816F42C081235
:1009E800F31EF72CF82CFA2C8816FB2C8812731F90
:1009F800FE2CFF2C012D0817022D0813F31F052DBF
:100A0800062D082D8817092D88130800F700172DC3
:100A18007708CE3EF6007608F7000130F600760833
:100A280083120313B7073230770203181C2D1D2DCC
:100A38000C2D831203133708F60073088400760818
:100A480083138000B701312D7708F63EF60076084B
:100A5800F7000130F6007608B7070A307702031866
:100A6800362D372D282D3708F600740884007608AF
:100A7800831380007708F6007508840076088000E4
:100A8800B7010800F700532D77089C3EF60076085A
:100A9800F7000130F600760883120313B7076430B5
:100AA80077020318582D592D482D83120313370840
:100AB800F60075088400760883138000B7016D2D51
:100AC8007708F63EF6007608F7000130F60076085B
:100AD800B7070A3077020318722D732D642D370873
:100AE800F60074088400760880007708F60073081A
:100AF800840076088000B701080083120313B2004F
:100B08002B082C02A200A301031CA3032B0832020A
:100B1800F300F401031CF4032D082E02F500F6017E
:100B2800031CF6030A128A110E260A128A11740887
:100B380083120313A5007308A4000A128A1119244A
:100B48000A128A11831203132208AF002308B00087
:100B58002D082F07B1002A0884003108831380006C
:100B680008008B13831203138C1DBB2DBC2DDA2DAB
:100B7800861BBF2DC02DC62D86171308F0007008E0
:100B8800BF00D92D061BC92DCA2DD02D0617130855
:100B9800F0007008BE00D92D861AD32DD42DD92D7A
:100BA80086161308F0007008B8008C118B177208AD
:100BB8008A00710E8300FE0E7E0E0900831603174D
:100BC800890188018316031385018701880183122F
:100BD80003138501870188010A128A11D2260A1295
:100BE8008A111F30831603138600603083120313A3
:100BF800860010308316031387009401910130306A
:100C08008312031394000830831603138C00C0303A
:100C18008B00080083120313A001A101731C152E79
:100C2800162E1E2E750883120313A0070318A10A97
:100C38007608A10701300310F50DF60DFF3E031DE0
:100C48001F2E01300310F40CF30CFF3E031D262E5B
:100C580073087404031D312E322E122E83120313CF
:100C68002108F4002008F300080083120313A200EF
:100C7800A001A101542E2008220784000A128A111B
:100C880088260A128A110A128A11BC260A128A11A7
:100C9800013083120313A0070318A10A0030A1072B
:100CA8002008220784000A128A1188260A128A114B
:100CB800003A031D602E612E3F2E08008312031395
:100CC800A1002103031D692E6A2E762E77087F3E28
:100CD800A0002008A20022080A128A11A2260A12DD
:100CE8008A11872E02302106031D7B2E7C2E872E2B
:100CF8007708BF3EA0002008A20022080A128A1125
:100D0800A2260A128A11080006308A000408840AFA
:100D180082070034533431343A34203420342034B8
:100D2800533432343A342034203420345334333476
:100D38003A3420340034203420340034F60083124E
:100D48000313871076080A128A11CC240A128A1112
:100D58008312031307141A30F500F830F400F40B6B
:100D6800B32EF50BB32E00008312031307100800EF
:100D7800F50083120313871475080A128A11CC240C
:100D88000A128A118312031307141A30F400F40BA1
:100D9800CB2E0000831203130710080019308316A6
:100DA800031399009A0183160317870124308316C9
:100DB8000313980090308312031398000800F7017A
:100DC800F70A01300A128A1162260A128A110130C2
:100DD8000A128A1139260A128A110800831203138B
:100DE8008613C730F300F82EF30BF72EFB2EFC2EDC
:100DF8008312031393010800831203130613C730E9
:100E0800F300062FF30B052F092F0A2F8312031364
:100E180093010800831203138612C730F300142FBE
:100E2800F30B132F172F182F8312031393010800A6
:100E3800F30083160313981C222F232F272F7308E0
:100E4800831203139900080083160313981C2D2F8F
:100E58002E2F322F0D3083120313990008002734E8
:020E680027342D
:04400E00D120FF3F7F
:00000001FF
