:020000040000FA
:100000000A128A11FC2F00308A000408840A820731
:100010000034483465346C346C346F3420345734D5
:100020006F3472346C34643420342134213400341D
:100030002A342A3420346D3463347534683471348E
:0800400020342A342A34003474
:100EAE00F4007403031D5C2F5D2F622F8030F3005E
:100EBE007308F500662FC030F3007308F50075084F
:100ECE000A128A1188270A128A1108000A128A1138
:100EDE00A6270A128A1101300A128A11CC270A1289
:100EEE008A1102300A128A1157270A128A111030FB
:100EFE000A128A11CC270A128A11842F0A128A1119
:100F0E000028F2007208831203138800091089105A
:100F1E0009151A30F100F830F000F00B942FF10B98
:100F2E00942F00008312031309110330F100973040
:100F3E00F000F00BA02FF10BA02FA52F08008316A9
:100F4E000313890188010D30F400FB30F300F30B1D
:100F5E00AE2FF40BAE2FB32F38300A128A1188271A
:100F6E000A128A110E300A128A1188270A128A1161
:100F7E0001300A128A1188270A128A1180300A1249
:100F8E008A1188270A128A110800F000F101F20175
:100F9E007108700784000A128A1103200A128A113E
:100FAE00003A031DDB2FDC2FDD2FFB2F710870079E
:100FBE0084000A128A1103200A128A118312031363
:100FCE0088000130F1070318F20A0030F2077208A8
:100FDE00803AFF0080307F02031DF72F1030710220
:100FEE00031CFA2FFB2FCF2F080083010A128A1140
:020FFE006D2F55
:04400E00D120FF3F7F
:00000001FF
