:020000040000FA
:060000000A128A110C280F
:10000800FE00030EF1000A08F2000A128A111A28EB
:100018000A128A110F280A128A1173200A128A11E9
:10002800F600F50183010A128A116428E8308B0072
:100038000330831603139600831203130C1F25281D
:1000480026282D28F601F60A1E08F0007008F5008B
:100058000C1372088A00710E8300FE0E7E0E0900D2
:10006800F400E8308B00831203130C138316031378
:100078000C179F137403031D422843284B2806308E
:10008800F300F30B45280000831203139F140800A4
:100098008316031789010130880001308316031382
:1000A80085005530831203139F0084308316031391
:1000B80081006430831203138100E8308B0008004C
:1000C8000A128A114C200A128A1176080A128A1119
:1000D80034200A128A1169280A128A110C2801345C
:04400E00D120FF3F7F
:00000001FF
