:020000040000FA
:060000000A128A110E280D
:10000800FE00030EF3000408F4000A08F5000A12C3
:100018008A116C280A128A111128F801F901830142
:100028000A128A114428831603130608880110301F
:10003800F6007608831603178905831203138801CF
:10004800860170309F001030831603139F008312BF
:1000580003131F14203083160313850018308700FC
:1000680094019101343083120313940048308316AD
:1000780003138C00831203130C13C8308B00080081
:100088000A128A1117200A128A110A128A118F205D
:100098000A128A1150307902031853285428592813
:1000A800043083120313880049285C307902031C4A
:1000B8005E285F28642801308312031388004928CA
:1000C800023083120313880049280A128A110E2865
:1000D800831203130C1F712872287B2879300A12A7
:1000E8008A11A1200A128A11831203130C138C1D82
:1000F8007E287F2886281308F2007208F8007908FD
:1001080093008C1175088A0074088400730E8300AC
:10011800FE0E7E0E0900831203139F18942895285B
:10012800A0280730F7007D30F600F60B9928F70B6A
:100138009928831203139F140800F10083120313F4
:0E0148001E08F0007108840070088000080096
:04400E00D120FF3F7F
:00000001FF
