:020000040000FA
:060000000A128A110C280F
:10000800FE00030EF1000A08F2000A128A113C28C9
:100018000A128A110F280A128A119A200A128A11C2
:10002800F600F50183010A128A11862850307502FC
:1000380003181F282028252801308312031388005D
:100048001A2850307502031C2A282B2836285C30C1
:10005800750203183028312836280230831203131A
:1000680088001A2804308312031388001A2808000D
:10007800E8308B00033083160313960083120313B2
:100088000C1F472848284F28F601F60A1E08F000DA
:100098007008F5000C1372088A00710E8300FE0EBA
:1000A8007E0E0900F400E8308B00831203130C1352
:1000B800831603130C179F137403031D6428652804
:1000C8006D280630F300F30B672800008312031332
:1000D8009F14080083160317890101308800013036
:1000E8008316031385005530831203139F00843051
:1000F8008316031381006430831203138100E830F0
:100108008B0008000A128A116E200A128A117608DA
:100118000A128A1156200A128A110A128A111A2002
:0E0128000A128A118B280A128A110C2801343F
:04400E00D120FF3F7F
:00000001FF
