:020000040000FA
:060000000A128A110C280F
:10000800FE00030EF7000A08F8000A128A112D28CC
:100018000A128A110F2883133030FD000130FE00C8
:100028001630FF00203084000A128A1107210A12B4
:100038008A110A128A112E210A128A11FA00B301B2
:10004800F001F101F201F301F40183010A128A11AE
:100058008D28E8308B0003308316031396000B1CA1
:100068003628372852288B1D3A283B2852288312D5
:100078000313061C4028412846280A128A11262103
:100088000A128A1183120313861C4B284C28512804
:100098000A128A112B210A128A110B1083120313D8
:1000A8000C1F572858286F28FA01FA0A1E08F6006C
:1000B8007608F3001E08F6007608F200F9011E081B
:1000C8000319672868286A28F901F90A7908F600E7
:1000D8007608F1000C130B1D7228732886286430EB
:1000E80081007203031D79287A288028F201F10122
:1000F800F10A330887008528F201F20AF101700835
:1001080087000B1178088A00770E8300FE0E7E0E9A
:1001180009000A128A11BA200A128A117408831275
:10012800031388007A080A128A11E7200A128A1132
:100138007208203E84008313000883120313B20060
:100148003208F0007108203E84000008B20032082E
:10015800B300730874020318B228B328B5288717A8
:100168009228871392280A128A110C2883160313DF
:10017800890183120313890183160317890101304A
:10018800880001308316031385000330860083122C
:100198000313860183160313870183120313870150
:1001A80083160313880183120313880155309F00B7
:1001B8008430831603138100643083120313810093
:1001C800E8308B00080083120313B100E8308B007D
:1001D8000C13831603130C179F1383120313310395
:1001E800031DF728F8280229053083120313B000ED
:1001F800B00BFC28FF28831203139F1408007E0805
:100208008A007F0882000A128A1103210A128A11C1
:100218008000840A04087D0603190034FF0A0319C4
:10022800FE0A07293F3406345B344F3466346D3494
:100238007D3407347F346F3477347C3439345E341A
:10024800793471340130F5007508F407080001307D
:06025800F402080001346D
:04400E00D120FF3F7F
:00000001FF
