:020000040000FA
:060000000A128A110C280F
:10000800FE00030EF0000A08F1000A128A11BB284C
:100018000A128A110F28F50183010A128A119728FA
:100028004E2883120313880108140230F4000430A8
:10003800F300BA30F200F20B1F28F30B1F28F40B61
:100048001F280000702883120313880188141928B8
:1000580083120313880108151928831203138801D2
:100068008815192883120313880108161928831282
:1000780003138801881619288312031388010817A7
:100088001928831203138801881719288312031368
:10009800880170287508F200F3017308003A031903
:1000A80056284A287208003A03191528013A0319F4
:1000B8002728033A03192C28013A03193128073A4B
:1000C80003193628013A03193B28033A0319402833
:1000D800013A031945284A2808008B138B17831601
:1000E80003130C17831203130C13831603138901CC
:1000F80083120313890183160317880189010330CA
:1001080083160313860083120313860183160313D1
:10011800870183120313870183160313880183124F
:100128000313880108000A128A1171200A128A1121
:100138000A128A1114200A128A1183120313061C48
:10014800A628A728AC280A128A11C8200A128A11E0
:1001580083120313861CB128B2289C280A128A111C
:10016800CD200A128A119C280A128A110C280B0821
:100178000B11831203130C080C1371088A00700EFC
:100188008300FE0E7E0E09000130F2007208F507AA
:0801980008000130F502080027
:04400E00D120FF3F7F
:00000001FF
